:100000000C9466000C948E000C948E000C948E0060
:100010000C948E000C948E000C948E000C948E0028
:100020000C948E000C948E000C948E000C948E0018
:100030000C948E000C948E000C948E000C948E0008
:100040000C9459050C948E000C94E7030C9419043D
:100050000C948E000C948E000C948E000C948E00E8
:100060000C948E000C948E00940296029A029E02CA
:10007000A102A502A802000000080002010000037E
:100080000407000000000000000001020408102026
:10009000408001020408102001020408102004041A
:1000A0000404040404040202020202020303030320
:1000B000030300000000250028002B0000000000C2
:1000C000240027002A004C024904210711241FBEE6
:1000D000CFEFD8E0DEBFCDBF11E0A0E0B1E0E8EDAA
:1000E000F3E102C005900D92AA32B107D9F721E0E1
:1000F000AAE2B1E001C01D92A23EB207E1F710E012
:10010000C6E6D0E004C02197FE010E94E409C33690
:10011000D107C9F70E94AD020C94EA090C940000C3
:10012000089564E088E391E00E94B20664E086E30B
:1001300091E00E94B20664E082E391E00E94B20680
:1001400064E084E391E00C94B20626E040E855E2D6
:1001500060E070E08AE391E00E94820386E990E02B
:10016000909331018093300110922F0110922E0153
:100170000C9491006091300170913101072E000CB8
:10018000880B990B0E94C90820910C0130910D0138
:1001900040910E0150910F010E9455090E9498084C
:1001A00086E391E00E940A0760913001709131016D
:1001B000072E000C880B990B0E94C908209104019E
:1001C0003091050140910601509107010E945509A7
:1001D0000E94980884E391E00E940A076091300130
:1001E00070913101072E000C880B990B0E94C908F1
:1001F00020910001309101014091020150910301D1
:100200000E9455090E94980882E391E00E940A0723
:100210006091300170913101072E000C880B990B11
:100220000E94C908209108013091090140910A01FA
:1002300050910B010E9455090E94980888E391E0B3
:100240000C940A079C0140E050E060E87FE3409393
:100250000C0150930D0160930E0170930F014093B8
:1002600008015093090160930A0170930B014093B8
:1002700004015093050160930601709307014093B8
:100280000001509301016093020170930301BC01CE
:10029000990F880B990B37FD29C00E94C90820E0EF
:1002A00030E044EB52E40E9426089B01AC0160E080
:1002B00070E080E89FE30E94B90760932A01709381
:1002C0002B0180932C0190932D0160930801709372
:1002D000090180930A0190930B0160930C017093C4
:1002E0000D0180930E0190930F0126C00E94C90852
:1002F00020E030E044EB52E40E94260820E030E0A9
:1003000040E85FE30E94BA0760932A0170932B01D3
:1003100080932C0190932D01609300017093010153
:10032000809302019093030160930401709305018F
:1003300080930601909307010C94BA0090933101C9
:100340008093300162E088E391E00E94B20662E0AF
:1003500086E391E00E94B20662E082E391E00E94AF
:10036000B20662E084E391E00E94B20686E696E679
:10037000A6E6BFE380930C0190930D01A0930E01BC
:10038000B0930F018093080190930901A0930A0193
:10039000B0930B0180E090E0A0E8BFE380930401FC
:1003A00090930501A0930601B0930701809300018B
:1003B00090930101A0930201B09303010C94BA0041
:1003C000909331018093300161E088E391E00E94D5
:1003D000B20661E086E391E00E94B20661E082E34A
:1003E00091E00E94B20661E084E391E00E94B206CF
:1003F00080E090E0A0E8BFE380930C0190930D01B2
:10040000A0930E01B0930F0180930801909309010E
:10041000A0930A01B0930B0186E696E6A6E6BFE339
:100420008093040190930501A0930601B093070106
:100430008093000190930101A0930201B093030106
:100440000C94BA0062E0892B91F482E391E00E945F
:10045000B20662E084E391E00E94B20661E088E3C4
:1004600091E00E94B20661E086E391E011C088E36A
:1004700091E00E94B20662E086E391E00E94B2063B
:1004800061E082E391E00E94B20661E084E391E0E2
:100490000E94B2060C94BA0042E061E088E391E069
:1004A0000E94550642E062E086E391E00E94550614
:1004B00042E063E084E391E00E94550642E064E09C
:1004C00082E391E00C9455068AE391E00E94BC021D
:1004D000892BF9F08AE391E00E94D602C0979093AD
:1004E0002F0180932E0160E171E08AE391E00E9488
:1004F000B60460912E0170912F014AE050E08AE32A
:1005000091E00E94520568E171E08AE391E00E9467
:10051000B604E0912E01F0912F01E730F105E0F4EF
:10052000EC5CFF4F0C94E4090C94910084E690E09D
:100530000C94E00184E690E00C949E018BE490E042
:1005400002C085EB9FEF0C94220180E090E002C096
:1005500081E090E00C94220208950E94A3050E947D
:1005600090000E94A500CAEED2E00E94640220978B
:10057000E1F30E94EA02F9CFFC01918D228D892FCF
:1005800090E0805C9F4F821B91098F73992708959B
:10059000FC01918D828D981731F0828DE80FF11D4D
:1005A000858D90E008958FEF9FEF0895FC01918D68
:1005B000828D981761F0828DDF01A80FB11D5D96C5
:1005C0008C91928D9F5F9F73928F90E008958FEF33
:1005D0009FEF08958FE394E0892B49F080E090E04D
:1005E000892B29F00E943F0481110C94000008958A
:1005F000FC01848DDF01A80FB11DA35ABF4F2C91C0
:10060000848D90E001968F739927848FA689B7898E
:100610002C93A089B1898C9180648C93938D848D67
:10062000981306C00288F389E02D80818F7D808336
:100630000895CF93DF93EC01888D8823C9F0EA8970
:10064000FB89808185FD05C0A889B9898C9186FDCB
:100650000FC00FB607FCF5CF808185FFF2CFA889C8
:10066000B9898C9185FFEDCFCE010E94F802E7CFCA
:10067000DF91CF910895EF92FF920F931F93CF9345
:10068000DF93EC0181E0888F9B8D8C8D981305C0E2
:10069000E889F989808185FD24C0F62E0B8D10E054
:1006A0000F5F1F4F0F731127E02E8C8DE8120CC0C7
:1006B0000FB607FCFACFE889F989808185FFF5CF6D
:1006C000CE010E94F802F1CF8B8DFE01E80FF11DE3
:1006D000E35AFF4FF0820B8FEA89FB8980818062A9
:1006E00007C0EE89FF896083E889F9898081806489
:1006F000808381E090E0DF91CF911F910F91FF9077
:10070000EF900895CF92DF92EF92FF921F93CF93D5
:10071000DF93EC016A017B01122FE889F98982E0FD
:1007200080834115514E61057105B1F060E079E0BB
:100730008DE390E0A70196010E94C209DA01C90188
:100740000197A109B109B695A79597958795AC0131
:10075000411580E15807A8F0E889F989108260E81E
:1007600074E88EE190E0A70196010E94C209BA01E7
:10077000A90141505109610971097695679557950D
:100780004795EC85FD855083EE85FF854083188E67
:10079000EC89FD891083EA89FB89808180618083EF
:1007A000EA89FB89808188608083EA89FB8980816E
:1007B00080688083EA89FB8980818F7D8083DF91D7
:1007C000CF911F91FF90EF90DF90CF9008951F92EF
:1007D0000F920FB60F9211242F938F939F93EF9345
:1007E000FF93E0914A01F0914B018081E09150012B
:1007F000F091510182FD12C09081809153018F5F71
:100800008F7320915401821751F0E0915301F0E071
:10081000E65CFE4F958F8093530101C08081FF916C
:10082000EF919F918F912F910F900FBE0F901F907E
:1008300018951F920F920FB60F9211242F933F938A
:100840004F935F936F937F938F939F93AF93BF93D8
:10085000EF93FF938AE391E00E94F802FF91EF91FA
:10086000BF91AF919F918F917F916F915F914F91C8
:100870003F912F910F900FBE0F901F9018958AE314
:1008800091E00E94BC0221E0892B09F420E0822F34
:100890000895EAE3F1E01382128288EE93E0A0E08B
:1008A000B0E084839583A683B7838EE191E0918342
:1008B000808385EC90E09587848784EC90E097872F
:1008C000868780EC90E0918B808B81EC90E0938B1D
:1008D000828B82EC90E0958B848B86EC90E0978BFA
:1008E000868B118E128E138E148E0895CF92DF9206
:1008F000EF92FF920F931F93CF93DF936C017A01D6
:100900008B01C0E0D0E0CE15DF0589F0D8016D91F4
:100910008D01D601ED91FC910190F081E02DC60191
:100920000995892B11F47E0102C02196ECCFC701F5
:10093000DF91CF911F910F91FF90EF90DF90CF90BB
:1009400008956115710579F0FB0101900020E9F728
:100950003197AF01461B570BDC01ED91FC910280F2
:10096000F381E02D099480E090E008950C94A104B7
:10097000DC01ED91FC910190F081E02D09944F9202
:100980005F926F927F92EF92FF920F931F93CF939C
:10099000DF93CDB7DEB7A1970FB6F894DEBF0FBED9
:1009A000CDBF7C01FA01CB0119A2223008F42AE064
:1009B0008E010F5D1F4F422E512C612C712CBF01F7
:1009C000A30192010E94C209F901CA010150110953
:1009D0006A3014F4605D01C0695CD8016C93232B0C
:1009E000242B252B61F7B801C7010E94A104A19611
:1009F0000FB6F894DEBF0FBECDBFDF91CF911F9130
:100A00000F91FF90EF907F906F905F904F900895BF
:100A1000CF92DF92EF92FF920F931F93CF93DF93CA
:100A2000EC016A017B012115310579F4E881F98136
:100A30000190F081E02D642FDF91CF911F910F91F4
:100A4000FF90EF90DF90CF9009942A303105E9F4C0
:100A500077FF1AC06DE20E94B8048C014427552725
:100A6000BA014C195D096E097F092AE0CE010E9486
:100A7000BF04800F911FDF91CF911F910F91FF90C5
:100A8000EF90DF90CF9008952AE0B701A601CE0144
:100A9000DF91CF911F910F91FF90EF90DF90CF905A
:100AA0000C94BF049A01AB01770F660B770B0C9483
:100AB00008051F920F920FB60F9211242F933F93A8
:100AC0008F939F93AF93BF938091D8019091D90159
:100AD000A091DA01B091DB013091D70123E0230F1F
:100AE0002D3720F40196A11DB11D05C026E8230F66
:100AF0000296A11DB11D2093D7018093D801909338
:100B0000D901A093DA01B093DB018091DC019091CF
:100B1000DD01A091DE01B091DF010196A11DB11DA3
:100B20008093DC019093DD01A093DE01B093DF019F
:100B3000BF91AF919F918F913F912F910F900FBED9
:100B40000F901F901895789484B5826084BD84B509
:100B5000816084BD85B5826085BD85B5816085BDB8
:100B6000EEE6F0E0808181608083E1E8F0E01082D1
:100B7000808182608083808181608083E0E8F0E012
:100B8000808181608083E1EBF0E0808184608083FC
:100B9000E0EBF0E0808181608083EAE7F0E0808133
:100BA0008460808380818260808380818160808393
:100BB0008081806880831092C100089584B5836825
:100BC00084BD17BC61E086E00C944D0784B5836258
:100BD00084BD18BC61E085E00C944D07CF93DF9392
:100BE00060E08CE00E94890760E088E00E9489074D
:100BF000C7E0D0E060E084E00E9489078091E101D5
:100C000090E00C2E02C0959587950A94E2F780FF3C
:100C100002C061E001C060E088E00E94890761E0F5
:100C200084E00E948907219728F761E08CE0DF913A
:100C3000CF910C948907CF93DF93EC0161E08CE0B6
:100C40000E944D0761E087E00E944D0761E088E067
:100C50000E944D0761E084E00E944D071092E1017F
:100C6000CE010E94EE0560E087E0DF91CF910C9409
:100C70008907E0EBF0E09081936890838770809320
:100C8000B1001092B30061E08BE00C944D07E0EBF3
:100C9000F0E090819362908387708093B10010920E
:100CA000B40061E083E00C944D071F93CF93DF9372
:100CB0001F92CDB7DEB7142FFC016083418380EE15
:100CC00091E069830E941B066981623039F198F4D2
:100CD000613009F042C08091E101837F8093E1019E
:100CE00080EE91E00E94EE05812F0F90DF91CF9171
:100CF0001F910C943906633009F1643071F58091CD
:100D0000E1018E7B8093E10180EE91E00E94EE058F
:100D10000F90DF91CF911F910C94E6058091E10136
:100D20008D7E8093E10180EE91E00E94EE05812F9F
:100D30000F90DF91CF911F910C9447068091E101B4
:100D40008F758093E10180EE91E00E94EE050F9097
:100D5000DF91CF911F910C94DE050F90DF91CF9121
:100D60001F910895FC018081823049F018F4813090
:100D700079F00895833031F0843039F0089524E01B
:100D800031E008C027E035E005C026E030E002C0D1
:100D900023E032E06230A9F0643029F16130C9F516
:100DA00081E090E0AC0101C0440F2A95EAF740953C
:100DB00001C0880F3A95EAF79091E101892B8423CD
:100DC00022C081E090E0AC0101C0440F3A95EAF7FF
:100DD000342F30954091E101342301C0880F2A95CA
:100DE000EAF7832B10C041E050E0CA0101C0880F30
:100DF0003A95EAF701C0440F2A95EAF7842B8095CB
:100E00009091E10189238093E10180EE91E00C94BF
:100E1000EE050895FC018081823061F018F4813084
:100E200031F00895833049F0843049F0089560939B
:100E3000B30008956093B400089567BD089568BD38
:100E400008951092E0010895833081F028F48130F4
:100E500099F08230A1F008958730A9F08830B9F078
:100E60008430D1F4809180008F7D03C08091800018
:100E70008F7780938000089584B58F7702C084B502
:100E80008F7D84BD08958091B0008F7703C08091DD
:100E9000B0008F7D8093B0000895CF93DF9390E0F2
:100EA000FC01E657FF4F2491FC01E256FF4F84916D
:100EB000882361F190E0880F991FFC01E454FF4FF3
:100EC000C591D491FC01EE54FF4FA591B4916111ED
:100ED00009C09FB7F8948881209582238883EC917C
:100EE0002E230BC0623061F49FB7F8943881822FB3
:100EF000809583238883EC912E2B2C939FBF06C073
:100F00008FB7F894E8812E2B28838FBFDF91CF9184
:100F100008951F93CF93DF93282F30E0F901EA580B
:100F2000FF4F8491F901E657FF4FD491F901E25642
:100F3000FF4FC491CC23C9F0162F81110E942407C2
:100F4000EC2FF0E0EE0FFF1FEE54FF4FA591B49190
:100F50008FB7F894111105C09C91ED2FE095E9230E
:100F600002C0EC91ED2BEC938FBFDF91CF911F91DD
:100F700008955058BB27AA270E94D1070C941B093B
:100F80000E940D0938F00E94140920F039F49F3FA7
:100F900019F426F40C940A090EF4E095E7FB0C947E
:100FA0000409E92F0E942C0958F3BA176207730746
:100FB0008407950720F079F4A6F50C944E090EF4F9
:100FC000E0950B2EBA2FA02D0B01B90190010C0159
:100FD000CA01A0011124FF27591B99F0593F50F471
:100FE000503E68F11A16F040A22F232F342F4427C9
:100FF000585FF3CF469537952795A795F0405395C1
:10100000C9F77EF41F16BA0B620B730B840BBAF090
:101010009150A1F0FF0FBB1F661F771F881FC2F7FB
:101020000EC0BA0F621F731F841F48F4879577950F
:101030006795B795F7959E3F08F0B0CF9395880FC9
:1010400008F09927EE0F9795879508950E943A0822
:101050000C941B090E94140958F00E940D0940F0DD
:1010600029F45F3F29F00C94040951110C944F09A5
:101070000C940A090E942C0968F39923B1F35523B3
:1010800091F3951B550BBB27AA276217730784079B
:1010900038F09F5F5F4F220F331F441FAA1FA9F331
:1010A00035D00E2E3AF0E0E832D091505040E6951F
:1010B000001CCAF72BD0FE2F29D0660F771F881F80
:1010C000BB1F261737074807AB07B0E809F0BB0B73
:1010D000802DBF01FF2793585F4F3AF09E3F510587
:1010E00078F00C9404090C944F095F3FE4F3983EA8
:1010F000D4F3869577956795B795F7959F5FC9F770
:10110000880F911D9695879597F90895E1E0660FF0
:10111000771F881FBB1F621773078407BA0720F069
:10112000621B730B840BBA0BEE1F88F7E0950895D2
:101130000E94340988F09F5798F0B92F9927B7512A
:10114000B0F0E1F0660F771F881F991F1AF0BA956B
:10115000C9F714C0B13091F00E944E09B1E0089572
:101160000C944E09672F782F8827B85F39F0B93F64
:10117000CCF3869577956795B395D9F73EF490951E
:101180008095709561957F4F8F4F9F4F0895E8949C
:1011900009C097FB3EF490958095709561957F4FBF
:1011A0008F4F9F4F9923A9F0F92F96E9BB2793956D
:1011B000F695879577956795B795F111F8CFFAF47D
:1011C000BB0F11F460FF1BC06F5F7F4F8F4F9F4FAE
:1011D00016C0882311F096E911C0772321F09EE80C
:1011E000872F762F05C0662371F096E8862F70E072
:1011F00060E02AF09A95660F771F881FDAF7880F4C
:101200009695879597F9089597F99F6780E870E01C
:1012100060E008959FEF80EC089500240A9416166C
:10122000170618060906089500240A9412161306D4
:10123000140605060895092E0394000C11F4882362
:1012400052F0BB0F40F4BF2B11F460FF04C06F5F7E
:101250007F4F8F4F9F4F089557FD9058440F551F54
:1012600059F05F3F71F04795880F97FB991F61F028
:101270009F3F79F087950895121613061406551F9F
:10128000F2CF4695F1DF08C0161617061806991F0B
:10129000F1CF86957105610508940895E894BB2700
:1012A00066277727CB0197F908950E9468090C9467
:1012B0001B090E940D0938F00E94140920F09523A3
:1012C00011F00C9404090C940A0911240C944F0990
:1012D0000E942C0970F3959FC1F3950F50E0551FA4
:1012E000629FF001729FBB27F00DB11D639FAA277B
:1012F000F00DB11DAA1F649F6627B00DA11D661FCA
:10130000829F2227B00DA11D621F739FB00DA11DEA
:10131000621F839FA00D611D221F749F3327A00DA4
:10132000611D231F849F600D211D822F762F6A2F40
:1013300011249F5750409AF0F1F088234AF0EE0FA5
:10134000FF1FBB1F661F771F881F91505040A9F7D2
:101350009E3F510580F00C9404090C944F095F3FA7
:10136000E4F3983ED4F3869577956795B795F7950E
:10137000E7959F5FC1F7FE2B880F911D9695879586
:1013800097F90895A1E21A2EAA1BBB1BFD010DC0FF
:10139000AA1FBB1FEE1FFF1FA217B307E407F50725
:1013A00020F0A21BB30BE40BF50B661F771F881F01
:1013B000991F1A9469F760957095809590959B0197
:1013C000AC01BD01CF010895EE0FFF1F0590F49110
:0813D000E02D0994F894FFCF11
:1013D8006666663F6666663F0000803F0000803FA5
:1013E8007374617475733A000A00000000003B03CF
:0A13F8007604BC02D602C8021903F5
:00000001FF
